{
  "contractName": "MockedDiceRoller",
  "abi": [
    {
      "inputs": [
        {
          "internalType": "address",
          "name": "_vrfCoordinator",
          "type": "address"
        },
        {
          "internalType": "address",
          "name": "_link",
          "type": "address"
        },
        {
          "internalType": "bytes32",
          "name": "_keyHash",
          "type": "bytes32"
        },
        {
          "internalType": "uint256",
          "name": "_fee",
          "type": "uint256"
        }
      ],
      "stateMutability": "nonpayable",
      "type": "constructor"
    },
    {
      "anonymous": false,
      "inputs": [
        {
          "indexed": true,
          "internalType": "bytes32",
          "name": "requestId",
          "type": "bytes32"
        },
        {
          "indexed": true,
          "internalType": "address",
          "name": "roller",
          "type": "address"
        },
        {
          "indexed": false,
          "internalType": "uint8[]",
          "name": "rolledvalues",
          "type": "uint8[]"
        },
        {
          "indexed": false,
          "internalType": "int8",
          "name": "adjustment",
          "type": "int8"
        },
        {
          "indexed": false,
          "internalType": "int16",
          "name": "result",
          "type": "int16"
        }
      ],
      "name": "DiceLanded",
      "type": "event"
    },
    {
      "anonymous": false,
      "inputs": [
        {
          "indexed": true,
          "internalType": "bytes32",
          "name": "requestId",
          "type": "bytes32"
        },
        {
          "indexed": true,
          "internalType": "address",
          "name": "roller",
          "type": "address"
        }
      ],
      "name": "DiceRolled",
      "type": "event"
    },
    {
      "anonymous": false,
      "inputs": [
        {
          "indexed": true,
          "internalType": "address",
          "name": "previousOwner",
          "type": "address"
        },
        {
          "indexed": true,
          "internalType": "address",
          "name": "newOwner",
          "type": "address"
        }
      ],
      "name": "OwnershipTransferred",
      "type": "event"
    },
    {
      "anonymous": false,
      "inputs": [
        {
          "indexed": false,
          "internalType": "address",
          "name": "account",
          "type": "address"
        }
      ],
      "name": "Paused",
      "type": "event"
    },
    {
      "anonymous": false,
      "inputs": [
        {
          "indexed": false,
          "internalType": "address",
          "name": "account",
          "type": "address"
        }
      ],
      "name": "Unpaused",
      "type": "event"
    },
    {
      "stateMutability": "payable",
      "type": "fallback"
    },
    {
      "inputs": [],
      "name": "getAllUsers",
      "outputs": [
        {
          "internalType": "address[]",
          "name": "",
          "type": "address[]"
        }
      ],
      "stateMutability": "view",
      "type": "function"
    },
    {
      "inputs": [],
      "name": "getAllUsersCount",
      "outputs": [
        {
          "internalType": "uint256",
          "name": "",
          "type": "uint256"
        }
      ],
      "stateMutability": "view",
      "type": "function"
    },
    {
      "inputs": [],
      "name": "getBalance",
      "outputs": [
        {
          "internalType": "uint256",
          "name": "",
          "type": "uint256"
        }
      ],
      "stateMutability": "view",
      "type": "function"
    },
    {
      "inputs": [],
      "name": "getLINKBalance",
      "outputs": [
        {
          "internalType": "uint256",
          "name": "",
          "type": "uint256"
        }
      ],
      "stateMutability": "view",
      "type": "function"
    },
    {
      "inputs": [
        {
          "internalType": "address",
          "name": "_roller",
          "type": "address"
        }
      ],
      "name": "getRoller",
      "outputs": [
        {
          "components": [
            {
              "internalType": "address",
              "name": "rollee",
              "type": "address"
            },
            {
              "internalType": "uint256",
              "name": "timestamp",
              "type": "uint256"
            },
            {
              "internalType": "uint256",
              "name": "randomness",
              "type": "uint256"
            },
            {
              "internalType": "uint8",
              "name": "numberOfDie",
              "type": "uint8"
            },
            {
              "internalType": "uint8",
              "name": "dieSize",
              "type": "uint8"
            },
            {
              "internalType": "int8",
              "name": "adjustment",
              "type": "int8"
            },
            {
              "internalType": "int16",
              "name": "result",
              "type": "int16"
            },
            {
              "internalType": "bool",
              "name": "hasRolled",
              "type": "bool"
            },
            {
              "internalType": "uint8[]",
              "name": "rolledValues",
              "type": "uint8[]"
            }
          ],
          "internalType": "struct DiceRoller.DiceRollee",
          "name": "",
          "type": "tuple"
        }
      ],
      "stateMutability": "view",
      "type": "function"
    },
    {
      "inputs": [
        {
          "internalType": "address",
          "name": "_address",
          "type": "address"
        }
      ],
      "name": "getUserRolls",
      "outputs": [
        {
          "components": [
            {
              "internalType": "address",
              "name": "rollee",
              "type": "address"
            },
            {
              "internalType": "uint256",
              "name": "timestamp",
              "type": "uint256"
            },
            {
              "internalType": "uint256",
              "name": "randomness",
              "type": "uint256"
            },
            {
              "internalType": "uint8",
              "name": "numberOfDie",
              "type": "uint8"
            },
            {
              "internalType": "uint8",
              "name": "dieSize",
              "type": "uint8"
            },
            {
              "internalType": "int8",
              "name": "adjustment",
              "type": "int8"
            },
            {
              "internalType": "int16",
              "name": "result",
              "type": "int16"
            },
            {
              "internalType": "bool",
              "name": "hasRolled",
              "type": "bool"
            },
            {
              "internalType": "uint8[]",
              "name": "rolledValues",
              "type": "uint8[]"
            }
          ],
          "internalType": "struct DiceRoller.DiceRollee[]",
          "name": "",
          "type": "tuple[]"
        }
      ],
      "stateMutability": "view",
      "type": "function"
    },
    {
      "inputs": [
        {
          "internalType": "address",
          "name": "_address",
          "type": "address"
        }
      ],
      "name": "getUserRollsCount",
      "outputs": [
        {
          "internalType": "uint256",
          "name": "",
          "type": "uint256"
        }
      ],
      "stateMutability": "view",
      "type": "function"
    },
    {
      "inputs": [
        {
          "internalType": "uint8",
          "name": "_numberOfDie",
          "type": "uint8"
        },
        {
          "internalType": "uint8",
          "name": "_dieSize",
          "type": "uint8"
        },
        {
          "internalType": "int8",
          "name": "_adjustment",
          "type": "int8"
        },
        {
          "internalType": "int8",
          "name": "_result",
          "type": "int8"
        }
      ],
      "name": "hasRolled",
      "outputs": [],
      "stateMutability": "nonpayable",
      "type": "function"
    },
    {
      "inputs": [
        {
          "internalType": "address",
          "name": "_member",
          "type": "address"
        }
      ],
      "name": "hasRolledOnce",
      "outputs": [
        {
          "internalType": "bool",
          "name": "isIndeed",
          "type": "bool"
        }
      ],
      "stateMutability": "view",
      "type": "function"
    },
    {
      "inputs": [],
      "name": "kill",
      "outputs": [],
      "stateMutability": "nonpayable",
      "type": "function"
    },
    {
      "inputs": [],
      "name": "owner",
      "outputs": [
        {
          "internalType": "address",
          "name": "",
          "type": "address"
        }
      ],
      "stateMutability": "view",
      "type": "function"
    },
    {
      "inputs": [],
      "name": "pause",
      "outputs": [],
      "stateMutability": "nonpayable",
      "type": "function"
    },
    {
      "inputs": [],
      "name": "paused",
      "outputs": [
        {
          "internalType": "bool",
          "name": "",
          "type": "bool"
        }
      ],
      "stateMutability": "view",
      "type": "function"
    },
    {
      "inputs": [
        {
          "internalType": "bytes32",
          "name": "requestId",
          "type": "bytes32"
        },
        {
          "internalType": "uint256",
          "name": "randomness",
          "type": "uint256"
        }
      ],
      "name": "rawFulfillRandomness",
      "outputs": [],
      "stateMutability": "nonpayable",
      "type": "function"
    },
    {
      "inputs": [],
      "name": "refundTokens",
      "outputs": [],
      "stateMutability": "payable",
      "type": "function"
    },
    {
      "inputs": [],
      "name": "renounceOwnership",
      "outputs": [],
      "stateMutability": "nonpayable",
      "type": "function"
    },
    {
      "inputs": [
        {
          "internalType": "uint8",
          "name": "_numberOfDie",
          "type": "uint8"
        },
        {
          "internalType": "uint8",
          "name": "_dieSize",
          "type": "uint8"
        },
        {
          "internalType": "int8",
          "name": "_adjustment",
          "type": "int8"
        }
      ],
      "name": "rollDice",
      "outputs": [
        {
          "internalType": "bytes32",
          "name": "requestId",
          "type": "bytes32"
        }
      ],
      "stateMutability": "nonpayable",
      "type": "function"
    },
    {
      "inputs": [
        {
          "internalType": "uint8",
          "name": "_numberOfDie",
          "type": "uint8"
        },
        {
          "internalType": "uint8",
          "name": "_dieSize",
          "type": "uint8"
        },
        {
          "internalType": "int8",
          "name": "_adjustment",
          "type": "int8"
        }
      ],
      "name": "rollDiceFast",
      "outputs": [
        {
          "internalType": "bytes32",
          "name": "requestId",
          "type": "bytes32"
        }
      ],
      "stateMutability": "nonpayable",
      "type": "function"
    },
    {
      "inputs": [
        {
          "internalType": "address",
          "name": "newOwner",
          "type": "address"
        }
      ],
      "name": "transferOwnership",
      "outputs": [],
      "stateMutability": "nonpayable",
      "type": "function"
    },
    {
      "inputs": [],
      "name": "unpause",
      "outputs": [],
      "stateMutability": "nonpayable",
      "type": "function"
    },
    {
      "stateMutability": "payable",
      "type": "receive"
    }
  ],
  "bytecode": "0x60c06040523480156200001157600080fd5b50604051620050f8380380620050f8833981810160405281019062000037919062000214565b8383838383838173ffffffffffffffffffffffffffffffffffffffff1660a08173ffffffffffffffffffffffffffffffffffffffff1660601b815250508073ffffffffffffffffffffffffffffffffffffffff1660808173ffffffffffffffffffffffffffffffffffffffff1660601b8152505050506000600160006101000a81548160ff021916908315150217905550620000e8620000dc6200010460201b60201c565b6200010c60201b60201c565b8160028190555080600381905550505050505050505062000316565b600033905090565b600060018054906101000a900473ffffffffffffffffffffffffffffffffffffffff169050816001806101000a81548173ffffffffffffffffffffffffffffffffffffffff021916908373ffffffffffffffffffffffffffffffffffffffff1602179055508173ffffffffffffffffffffffffffffffffffffffff168173ffffffffffffffffffffffffffffffffffffffff167f8be0079c531659141344cd1fd0a4f28419497f9722a3daafe3b4186f6b6457e060405160405180910390a35050565b600081519050620001e081620002c8565b92915050565b600081519050620001f781620002e2565b92915050565b6000815190506200020e81620002fc565b92915050565b600080600080608085870312156200022b57600080fd5b60006200023b87828801620001cf565b94505060206200024e87828801620001cf565b93505060406200026187828801620001e6565b92505060606200027487828801620001fd565b91505092959194509250565b60006200028d826200029e565b9050919050565b6000819050919050565b600073ffffffffffffffffffffffffffffffffffffffff82169050919050565b6000819050919050565b620002d38162000280565b8114620002df57600080fd5b50565b620002ed8162000294565b8114620002f957600080fd5b50565b6200030781620002be565b81146200031357600080fd5b50565b60805160601c60a05160601c614d9362000365600039600081816116a40152612921015260008181610ad30152818161108e015281816113ce015281816117be01526128e50152614d936000f3fe6080604052600436106101235760003560e01c8063796b0103116100a0578063ac428e7a11610064578063ac428e7a14610398578063bc466358146103c3578063e0a3f8c0146103ec578063e2842d7914610429578063f2fde38b146104545761012a565b8063796b0103146102b35780637be7785b146102f05780638456cb591461032d5780638da5cb5b1461034457806394985ddd1461036f5761012a565b806341c0e1b5116100e757806341c0e1b51461021357806353066bab1461022a5780635c975abb146102675780637100750914610292578063715018a61461029c5761012a565b806312065fe01461012c578063228bc26a14610157578063285bf6541461019457806338abfc41146101d15780633f4ba83a146101fc5761012a565b3661012a57005b005b34801561013857600080fd5b5061014161047d565b60405161014e919061415e565b60405180910390f35b34801561016357600080fd5b5061017e60048036038101906101799190612fc3565b610485565b60405161018b9190613f93565b60405180910390f35b3480156101a057600080fd5b506101bb60048036038101906101b69190612fc3565b610983565b6040516101c89190613f93565b60405180910390f35b3480156101dd57600080fd5b506101e6610f36565b6040516101f3919061415e565b60405180910390f35b34801561020857600080fd5b50610211610f43565b005b34801561021f57600080fd5b50610228611010565b005b34801561023657600080fd5b50610251600480360381019061024c9190612f0c565b611168565b60405161025e919061413c565b60405180910390f35b34801561027357600080fd5b5061027c611339565b6040516102899190613f78565b60405180910390f35b61029a611350565b005b3480156102a857600080fd5b506102b161148a565b005b3480156102bf57600080fd5b506102da60048036038101906102d59190612f0c565b611512565b6040516102e7919061415e565b60405180910390f35b3480156102fc57600080fd5b5061031760048036038101906103129190612f0c565b61155e565b6040516103249190613f78565b60405180910390f35b34801561033957600080fd5b506103426115ac565b005b34801561035057600080fd5b5061035961167a565b6040516103669190613e4b565b60405180910390f35b34801561037b57600080fd5b5061039660048036038101906103919190612f5e565b6116a2565b005b3480156103a457600080fd5b506103ad61173e565b6040516103ba919061415e565b60405180910390f35b3480156103cf57600080fd5b506103ea60048036038101906103e59190613012565b61186a565b005b3480156103f857600080fd5b50610413600480360381019061040e9190612f0c565b611e05565b6040516104209190613f18565b60405180910390f35b34801561043557600080fd5b5061043e61201b565b60405161044b9190613ef6565b60405180910390f35b34801561046057600080fd5b5061047b60048036038101906104769190612f0c565b6120a9565b005b600047905090565b600061048f611339565b156104cf576040517f08c379a00000000000000000000000000000000000000000000000000000000081526004016104c69061405c565b60405180910390fd5b83600a60ff168160ff16111561051a576040517f08c379a00000000000000000000000000000000000000000000000000000000081526004016105119061407c565b60405180910390fd5b83606460ff168160ff161115610565576040517f08c379a000000000000000000000000000000000000000000000000000000000815260040161055c906140dc565b60405180910390fd5b836000808260000b1215610582578161057d906148be565b610584565b815b9050601460000b8160000b13156105d0576040517f08c379a00000000000000000000000000000000000000000000000000000000081526004016105c79061411c565b60405180910390fd5b600254426040516020016105e5929190613e1f565b604051602081830303815290604052805190602001209450336004600087815260200190815260200160002060006101000a81548173ffffffffffffffffffffffffffffffffffffffff021916908373ffffffffffffffffffffffffffffffffffffffff16021790555060006040518061012001604052803373ffffffffffffffffffffffffffffffffffffffff168152602001428152602001600081526020018a60ff1681526020018960ff1681526020018860000b8152602001602a60000b60010b81526020016000151581526020018a60ff1667ffffffffffffffff8111156106fa577f4e487b7100000000000000000000000000000000000000000000000000000000600052604160045260246000fd5b6040519080825280602002602001820160405280156107285781602001602082028036833780820191505090505b5081525090506107373361155e565b6107b0576007339080600181540180825580915050600190039060005260206000200160009091909190916101000a81548173ffffffffffffffffffffffffffffffffffffffff021916908373ffffffffffffffffffffffffffffffffffffffff16021790555060018160e00190151590811515815250505b80600560003373ffffffffffffffffffffffffffffffffffffffff1673ffffffffffffffffffffffffffffffffffffffff16815260200190815260200160002060008201518160000160006101000a81548173ffffffffffffffffffffffffffffffffffffffff021916908373ffffffffffffffffffffffffffffffffffffffff160217905550602082015181600101556040820151816002015560608201518160030160006101000a81548160ff021916908360ff16021790555060808201518160030160016101000a81548160ff021916908360ff16021790555060a08201518160030160026101000a81548160ff021916908360000b60ff16021790555060c08201518160030160036101000a81548161ffff021916908360010b61ffff16021790555060e08201518160030160056101000a81548160ff021916908315150217905550610100820151816004019080519060200190610914929190612cbe565b509050503373ffffffffffffffffffffffffffffffffffffffff16867f923de4fc4aece24a78a9e4ca3009c571a742f81ac2c004a229224b0fd1883bdd60405160405180910390a36000444261096a9190614316565b905061097687826121a1565b5050505050509392505050565b600061098d611339565b156109cd576040517f08c379a00000000000000000000000000000000000000000000000000000000081526004016109c49061405c565b60405180910390fd5b83600a60ff168160ff161115610a18576040517f08c379a0000000000000000000000000000000000000000000000000000000008152600401610a0f9061407c565b60405180910390fd5b83606460ff168160ff161115610a63576040517f08c379a0000000000000000000000000000000000000000000000000000000008152600401610a5a906140dc565b60405180910390fd5b836000808260000b1215610a805781610a7b906148be565b610a82565b815b9050601460000b8160000b1315610ace576040517f08c379a0000000000000000000000000000000000000000000000000000000008152600401610ac59061411c565b60405180910390fd5b6003547f000000000000000000000000000000000000000000000000000000000000000073ffffffffffffffffffffffffffffffffffffffff166370a08231306040518263ffffffff1660e01b8152600401610b2a9190613e4b565b60206040518083038186803b158015610b4257600080fd5b505afa158015610b56573d6000803e3d6000fd5b505050506040513d601f19601f82011682018060405250810190610b7a9190612f9a565b1015610bbb576040517f08c379a0000000000000000000000000000000000000000000000000000000008152600401610bb2906140fc565b60405180910390fd5b610bc96002546003546128e1565b9450336004600087815260200190815260200160002060006101000a81548173ffffffffffffffffffffffffffffffffffffffff021916908373ffffffffffffffffffffffffffffffffffffffff16021790555060006040518061012001604052803373ffffffffffffffffffffffffffffffffffffffff168152602001428152602001600081526020018a60ff1681526020018960ff1681526020018860000b8152602001602a60000b60010b81526020016000151581526020018a60ff1667ffffffffffffffff811115610cc8577f4e487b7100000000000000000000000000000000000000000000000000000000600052604160045260246000fd5b604051908082528060200260200182016040528015610cf65781602001602082028036833780820191505090505b508152509050610d053361155e565b610d7e576007339080600181540180825580915050600190039060005260206000200160009091909190916101000a81548173ffffffffffffffffffffffffffffffffffffffff021916908373ffffffffffffffffffffffffffffffffffffffff16021790555060018160e00190151590811515815250505b80600560003373ffffffffffffffffffffffffffffffffffffffff1673ffffffffffffffffffffffffffffffffffffffff16815260200190815260200160002060008201518160000160006101000a81548173ffffffffffffffffffffffffffffffffffffffff021916908373ffffffffffffffffffffffffffffffffffffffff160217905550602082015181600101556040820151816002015560608201518160030160006101000a81548160ff021916908360ff16021790555060808201518160030160016101000a81548160ff021916908360ff16021790555060a08201518160030160026101000a81548160ff021916908360000b60ff16021790555060c08201518160030160036101000a81548161ffff021916908360010b61ffff16021790555060e08201518160030160056101000a81548160ff021916908315150217905550610100820151816004019080519060200190610ee2929190612cbe565b509050503373ffffffffffffffffffffffffffffffffffffffff16867f923de4fc4aece24a78a9e4ca3009c571a742f81ac2c004a229224b0fd1883bdd60405160405180910390a350505050509392505050565b6000600780549050905090565b610f4b612a40565b73ffffffffffffffffffffffffffffffffffffffff16610f6961167a565b73ffffffffffffffffffffffffffffffffffffffff1614610fbf576040517f08c379a0000000000000000000000000000000000000000000000000000000008152600401610fb69061409c565b60405180910390fd5b610fc7611339565b611006576040517f08c379a0000000000000000000000000000000000000000000000000000000008152600401610ffd9061401c565b60405180910390fd5b61100e612a48565b565b611018612a40565b73ffffffffffffffffffffffffffffffffffffffff1661103661167a565b73ffffffffffffffffffffffffffffffffffffffff161461108c576040517f08c379a00000000000000000000000000000000000000000000000000000000081526004016110839061409c565b60405180910390fd5b7f000000000000000000000000000000000000000000000000000000000000000073ffffffffffffffffffffffffffffffffffffffff1663a9059cbb6110d061167a565b6110d861173e565b6040518363ffffffff1660e01b81526004016110f5929190613e8f565b602060405180830381600087803b15801561110f57600080fd5b505af1158015611123573d6000803e3d6000fd5b505050506040513d601f19601f820116820180604052508101906111479190612f35565b5061115061167a565b73ffffffffffffffffffffffffffffffffffffffff16ff5b611170612d65565b600560008373ffffffffffffffffffffffffffffffffffffffff1673ffffffffffffffffffffffffffffffffffffffff168152602001908152602001600020604051806101200160405290816000820160009054906101000a900473ffffffffffffffffffffffffffffffffffffffff1673ffffffffffffffffffffffffffffffffffffffff1673ffffffffffffffffffffffffffffffffffffffff16815260200160018201548152602001600282015481526020016003820160009054906101000a900460ff1660ff1660ff1681526020016003820160019054906101000a900460ff1660ff1660ff1681526020016003820160029054906101000a900460000b60000b60000b81526020016003820160039054906101000a900460010b60010b60010b81526020016003820160059054906101000a900460ff161515151581526020016004820180548060200260200160405190810160405280929190818152602001828054801561132957602002820191906000526020600020906000905b82829054906101000a900460ff1660ff16815260200190600101906020826000010492830192600103820291508084116112f25790505b5050505050815250509050919050565b6000600160009054906101000a900460ff16905090565b611358612a40565b73ffffffffffffffffffffffffffffffffffffffff1661137661167a565b73ffffffffffffffffffffffffffffffffffffffff16146113cc576040517f08c379a00000000000000000000000000000000000000000000000000000000081526004016113c39061409c565b60405180910390fd5b7f000000000000000000000000000000000000000000000000000000000000000073ffffffffffffffffffffffffffffffffffffffff1663a9059cbb61141061167a565b61141861173e565b6040518363ffffffff1660e01b8152600401611435929190613e66565b602060405180830381600087803b15801561144f57600080fd5b505af1158015611463573d6000803e3d6000fd5b505050506040513d601f19601f820116820180604052508101906114879190612f35565b50565b611492612a40565b73ffffffffffffffffffffffffffffffffffffffff166114b061167a565b73ffffffffffffffffffffffffffffffffffffffff1614611506576040517f08c379a00000000000000000000000000000000000000000000000000000000081526004016114fd9061409c565b60405180910390fd5b6115106000612aea565b565b6000600660008373ffffffffffffffffffffffffffffffffffffffff1673ffffffffffffffffffffffffffffffffffffffff168152602001908152602001600020805490509050919050565b600080600660008473ffffffffffffffffffffffffffffffffffffffff1673ffffffffffffffffffffffffffffffffffffffff16815260200190815260200160002080549050119050919050565b6115b4612a40565b73ffffffffffffffffffffffffffffffffffffffff166115d261167a565b73ffffffffffffffffffffffffffffffffffffffff1614611628576040517f08c379a000000000000000000000000000000000000000000000000000000000815260040161161f9061409c565b60405180910390fd5b611630611339565b15611670576040517f08c379a00000000000000000000000000000000000000000000000000000000081526004016116679061405c565b60405180910390fd5b611678612bad565b565b600060018054906101000a900473ffffffffffffffffffffffffffffffffffffffff16905090565b7f000000000000000000000000000000000000000000000000000000000000000073ffffffffffffffffffffffffffffffffffffffff163373ffffffffffffffffffffffffffffffffffffffff1614611730576040517f08c379a0000000000000000000000000000000000000000000000000000000008152600401611727906140bc565b60405180910390fd5b61173a82826121a1565b5050565b6000611748612a40565b73ffffffffffffffffffffffffffffffffffffffff1661176661167a565b73ffffffffffffffffffffffffffffffffffffffff16146117bc576040517f08c379a00000000000000000000000000000000000000000000000000000000081526004016117b39061409c565b60405180910390fd5b7f000000000000000000000000000000000000000000000000000000000000000073ffffffffffffffffffffffffffffffffffffffff166370a08231306040518263ffffffff1660e01b81526004016118159190613e4b565b60206040518083038186803b15801561182d57600080fd5b505afa158015611841573d6000803e3d6000fd5b505050506040513d601f19601f820116820180604052508101906118659190612f9a565b905090565b611872611339565b156118b2576040517f08c379a00000000000000000000000000000000000000000000000000000000081526004016118a99061405c565b60405180910390fd5b83600a60ff168160ff1611156118fd576040517f08c379a00000000000000000000000000000000000000000000000000000000081526004016118f49061407c565b60405180910390fd5b83606460ff168160ff161115611948576040517f08c379a000000000000000000000000000000000000000000000000000000000815260040161193f906140dc565b60405180910390fd5b836000808260000b12156119655781611960906148be565b611967565b815b9050601460000b8160000b13156119b3576040517f08c379a00000000000000000000000000000000000000000000000000000000081526004016119aa9061411c565b60405180910390fd5b60006040518061012001604052803373ffffffffffffffffffffffffffffffffffffffff168152602001428152602001600081526020018a60ff1681526020018960ff1681526020018860000b81526020018760000b60010b81526020016001151581526020018a60ff1667ffffffffffffffff811115611a5d577f4e487b7100000000000000000000000000000000000000000000000000000000600052604160045260246000fd5b604051908082528060200260200182016040528015611a8b5781602001602082028036833780820191505090505b508152509050611a9a3361155e565b611b02576007339080600181540180825580915050600190039060005260206000200160009091909190916101000a81548173ffffffffffffffffffffffffffffffffffffffff021916908373ffffffffffffffffffffffffffffffffffffffff1602179055505b80600560003373ffffffffffffffffffffffffffffffffffffffff1673ffffffffffffffffffffffffffffffffffffffff16815260200190815260200160002060008201518160000160006101000a81548173ffffffffffffffffffffffffffffffffffffffff021916908373ffffffffffffffffffffffffffffffffffffffff160217905550602082015181600101556040820151816002015560608201518160030160006101000a81548160ff021916908360ff16021790555060808201518160030160016101000a81548160ff021916908360ff16021790555060a08201518160030160026101000a81548160ff021916908360000b60ff16021790555060c08201518160030160036101000a81548161ffff021916908360010b61ffff16021790555060e08201518160030160056101000a81548160ff021916908315150217905550610100820151816004019080519060200190611c66929190612cbe565b50905050600660003373ffffffffffffffffffffffffffffffffffffffff1673ffffffffffffffffffffffffffffffffffffffff16815260200190815260200160002081908060018154018082558091505060019003906000526020600020906005020160009091909190915060008201518160000160006101000a81548173ffffffffffffffffffffffffffffffffffffffff021916908373ffffffffffffffffffffffffffffffffffffffff160217905550602082015181600101556040820151816002015560608201518160030160006101000a81548160ff021916908360ff16021790555060808201518160030160016101000a81548160ff021916908360ff16021790555060a08201518160030160026101000a81548160ff021916908360000b60ff16021790555060c08201518160030160036101000a81548161ffff021916908360010b61ffff16021790555060e08201518160030160056101000a81548160ff021916908315150217905550610100820151816004019080519060200190611df7929190612cbe565b505050505050505050505050565b6060600660008373ffffffffffffffffffffffffffffffffffffffff1673ffffffffffffffffffffffffffffffffffffffff168152602001908152602001600020805480602002602001604051908101604052809291908181526020016000905b828210156120105783829060005260206000209060050201604051806101200160405290816000820160009054906101000a900473ffffffffffffffffffffffffffffffffffffffff1673ffffffffffffffffffffffffffffffffffffffff1673ffffffffffffffffffffffffffffffffffffffff16815260200160018201548152602001600282015481526020016003820160009054906101000a900460ff1660ff1660ff1681526020016003820160019054906101000a900460ff1660ff1660ff1681526020016003820160029054906101000a900460000b60000b60000b81526020016003820160039054906101000a900460010b60010b60010b81526020016003820160059054906101000a900460ff1615151515815260200160048201805480602002602001604051908101604052809291908181526020018280548015611ff857602002820191906000526020600020906000905b82829054906101000a900460ff1660ff1681526020019060010190602082600001049283019260010382029150808411611fc15790505b50505050508152505081526020019060010190611e66565b505050509050919050565b6060600780548060200260200160405190810160405280929190818152602001828054801561209f57602002820191906000526020600020905b8160009054906101000a900473ffffffffffffffffffffffffffffffffffffffff1673ffffffffffffffffffffffffffffffffffffffff1681526020019060010190808311612055575b5050505050905090565b6120b1612a40565b73ffffffffffffffffffffffffffffffffffffffff166120cf61167a565b73ffffffffffffffffffffffffffffffffffffffff1614612125576040517f08c379a000000000000000000000000000000000000000000000000000000000815260040161211c9061409c565b60405180910390fd5b600073ffffffffffffffffffffffffffffffffffffffff168173ffffffffffffffffffffffffffffffffffffffff161415612195576040517f08c379a000000000000000000000000000000000000000000000000000000000815260040161218c9061403c565b60405180910390fd5b61219e81612aea565b50565b6000600560006004600086815260200190815260200160002060009054906101000a900473ffffffffffffffffffffffffffffffffffffffff1673ffffffffffffffffffffffffffffffffffffffff1673ffffffffffffffffffffffffffffffffffffffff16815260200190815260200160002090508060040160006122279190612dd4565b8181600201819055506000805b8260030160009054906101000a900460ff1660ff16821015612415576000808590506000600285612265919061488d565b141561230e57600084111561228f57836064612281919061439d565b8661228c919061436c565b90505b60018560030160019054906101000a900460ff1660ff16806122da577f4e487b7100000000000000000000000000000000000000000000000000000000600052601260045260246000fd5b7faaaaaaaaaaaaaaaaaaaaaaaaaaaaaaaaaaaaaaaaaaaaaaaaaaaaaaaaaaaaaaaa83086123079190614316565b91506123ad565b600084111561233257836063612324919061439d565b8661232f919061436c565b90505b60018560030160019054906101000a900460ff1660ff168061237d577f4e487b7100000000000000000000000000000000000000000000000000000000600052601260045260246000fd5b7f555555555555555555555555555555555555555555555555555555555555555583096123aa9190614316565b91505b81836123b99190614282565b9250846004018290806001815401808255809150506001900390600052602060002090602091828204019190069091909190916101000a81548160ff021916908360ff1602179055508361240c90614830565b93505050612234565b8260030160029054906101000a900460000b60000b816124359190614282565b9050808360030160036101000a81548161ffff021916908360010b61ffff16021790555060006004600087815260200190815260200160002060009054906101000a900473ffffffffffffffffffffffffffffffffffffffff16905083600560008373ffffffffffffffffffffffffffffffffffffffff1673ffffffffffffffffffffffffffffffffffffffff1681526020019081526020016000206000820160009054906101000a900473ffffffffffffffffffffffffffffffffffffffff168160000160006101000a81548173ffffffffffffffffffffffffffffffffffffffff021916908373ffffffffffffffffffffffffffffffffffffffff16021790555060018201548160010155600282015481600201556003820160009054906101000a900460ff168160030160006101000a81548160ff021916908360ff1602179055506003820160019054906101000a900460ff168160030160016101000a81548160ff021916908360ff1602179055506003820160029054906101000a900460000b8160030160026101000a81548160ff021916908360000b60ff1602179055506003820160039054906101000a900460010b8160030160036101000a81548161ffff021916908360010b61ffff1602179055506003820160059054906101000a900460ff168160030160056101000a81548160ff021916908315150217905550600482018160040190805461264f929190612dfc565b50905050600660008273ffffffffffffffffffffffffffffffffffffffff1673ffffffffffffffffffffffffffffffffffffffff1681526020019081526020016000208490806001815401808255809150506001900390600052602060002090600502016000909190919091506000820160009054906101000a900473ffffffffffffffffffffffffffffffffffffffff168160000160006101000a81548173ffffffffffffffffffffffffffffffffffffffff021916908373ffffffffffffffffffffffffffffffffffffffff16021790555060018201548160010155600282015481600201556003820160009054906101000a900460ff168160030160006101000a81548160ff021916908360ff1602179055506003820160019054906101000a900460ff168160030160016101000a81548160ff021916908360ff1602179055506003820160029054906101000a900460000b8160030160026101000a81548160ff021916908360000b60ff1602179055506003820160039054906101000a900460010b8160030160036101000a81548161ffff021916908360010b61ffff1602179055506003820160059054906101000a900460ff168160030160056101000a81548160ff021916908315150217905550600482018160040190805461283a929190612dfc565b5050508360000160009054906101000a900473ffffffffffffffffffffffffffffffffffffffff1673ffffffffffffffffffffffffffffffffffffffff16867f130cc744f2cd80f18760d822f93daf2d306dd3d8853c48bf56e89e1d36467546866004018760030160029054906101000a900460000b8860030160039054906101000a900460010b6040516128d193929190613f3a565b60405180910390a3505050505050565b60007f000000000000000000000000000000000000000000000000000000000000000073ffffffffffffffffffffffffffffffffffffffff16634000aea07f000000000000000000000000000000000000000000000000000000000000000084866000604051602001612955929190613fae565b6040516020818303038152906040526040518463ffffffff1660e01b815260040161298293929190613eb8565b602060405180830381600087803b15801561299c57600080fd5b505af11580156129b0573d6000803e3d6000fd5b505050506040513d601f19601f820116820180604052508101906129d49190612f35565b5060006129f68460003060008089815260200190815260200160002054612c4f565b9050600160008086815260200190815260200160002054612a179190614316565b60008086815260200190815260200160002081905550612a378482612c8b565b91505092915050565b600033905090565b612a50611339565b612a8f576040517f08c379a0000000000000000000000000000000000000000000000000000000008152600401612a869061401c565b60405180910390fd5b6000600160006101000a81548160ff0219169083151502179055507f5db9ee0a495bf2e6ff9c91a7834c1ba4fdd244a5e8aa4e537bd38aeae4b073aa612ad3612a40565b604051612ae09190613e4b565b60405180910390a1565b600060018054906101000a900473ffffffffffffffffffffffffffffffffffffffff169050816001806101000a81548173ffffffffffffffffffffffffffffffffffffffff021916908373ffffffffffffffffffffffffffffffffffffffff1602179055508173ffffffffffffffffffffffffffffffffffffffff168173ffffffffffffffffffffffffffffffffffffffff167f8be0079c531659141344cd1fd0a4f28419497f9722a3daafe3b4186f6b6457e060405160405180910390a35050565b612bb5611339565b15612bf5576040517f08c379a0000000000000000000000000000000000000000000000000000000008152600401612bec9061405c565b60405180910390fd5b60018060006101000a81548160ff0219169083151502179055507f62e78cea01bee320cd4e420270b5ea74000d11b0c9f74754ebdbfc544b05a258612c38612a40565b604051612c459190613e4b565b60405180910390a1565b600084848484604051602001612c689493929190613fd7565b6040516020818303038152906040528051906020012060001c9050949350505050565b60008282604051602001612ca0929190613e1f565b60405160208183030381529060405280519060200120905092915050565b82805482825590600052602060002090601f01602090048101928215612d545791602002820160005b83821115612d2557835183826101000a81548160ff021916908360ff1602179055509260200192600101602081600001049283019260010302612ce7565b8015612d525782816101000a81549060ff0219169055600101602081600001049283019260010302612d25565b505b509050612d619190612e5c565b5090565b604051806101200160405280600073ffffffffffffffffffffffffffffffffffffffff1681526020016000815260200160008152602001600060ff168152602001600060ff1681526020016000800b8152602001600060010b8152602001600015158152602001606081525090565b50805460008255601f016020900490600052602060002090810190612df99190612e5c565b50565b82805482825590600052602060002090601f01602090048101928215612e4b57600052602060002091601f016020900482015b82811115612e4a578254825591600101919060010190612e2f565b5b509050612e589190612e5c565b5090565b5b80821115612e75576000816000905550600101612e5d565b5090565b600081359050612e8881614cd3565b92915050565b600081519050612e9d81614cea565b92915050565b600081359050612eb281614d01565b92915050565b600081359050612ec781614d18565b92915050565b600081359050612edc81614d2f565b92915050565b600081519050612ef181614d2f565b92915050565b600081359050612f0681614d46565b92915050565b600060208284031215612f1e57600080fd5b6000612f2c84828501612e79565b91505092915050565b600060208284031215612f4757600080fd5b6000612f5584828501612e8e565b91505092915050565b60008060408385031215612f7157600080fd5b6000612f7f85828601612ea3565b9250506020612f9085828601612ecd565b9150509250929050565b600060208284031215612fac57600080fd5b6000612fba84828501612ee2565b91505092915050565b600080600060608486031215612fd857600080fd5b6000612fe686828701612ef7565b9350506020612ff786828701612ef7565b925050604061300886828701612eb8565b9150509250925092565b6000806000806080858703121561302857600080fd5b600061303687828801612ef7565b945050602061304787828801612ef7565b935050604061305887828801612eb8565b925050606061306987828801612eb8565b91505092959194509250565b600061308183836130c8565b60208301905092915050565b60006130998383613c51565b905092915050565b60006130ad8383613e10565b60208301905092915050565b6130c281614487565b82525050565b6130d181614404565b82525050565b6130e081614404565b82525050565b60006130f1826141be565b6130fb818561421c565b935061310683614179565b8060005b8381101561313757815161311e8882613075565b9750613129836141f5565b92505060018101905061310a565b5085935050505092915050565b600061314f826141c9565b613159818561422d565b93508360208202850161316b85614189565b8060005b858110156131a75784840389528151613188858261308d565b945061319383614202565b925060208a0199505060018101905061316f565b50829750879550505050505092915050565b60006131c4826141d4565b6131ce818561423e565b93506131d983614199565b8060005b8381101561320a5781516131f188826130a1565b97506131fc8361420f565b9250506001810190506131dd565b5085935050505092915050565b6000613222826141df565b61322c818561424f565b935083613238846141a9565b6000600115613565575b836001602003820110156135645781546132648861325f836144f0565b613e10565b60208801975061327c886132778361460e565b613e10565b6020880197506132948861328f8361472c565b613e10565b6020880197506132ac886132a78361477a565b613e10565b6020880197506132c4886132bf83614794565b613e10565b6020880197506132dc886132d7836147ae565b613e10565b6020880197506132f4886132ef836147c8565b613e10565b60208801975061330c88613307836147e2565b613e10565b6020880197506133248861331f836147fc565b613e10565b60208801975061333c8861333783614816565b613e10565b6020880197506133548861334f8361450a565b613e10565b60208801975061336c8861336783614524565b613e10565b6020880197506133848861337f8361453e565b613e10565b60208801975061339c8861339783614558565b613e10565b6020880197506133b4886133af83614572565b613e10565b6020880197506133cc886133c78361458c565b613e10565b6020880197506133e4886133df836145a6565b613e10565b6020880197506133fc886133f7836145c0565b613e10565b6020880197506134148861340f836145da565b613e10565b60208801975061342c88613427836145f4565b613e10565b6020880197506134448861343f83614628565b613e10565b60208801975061345c8861345783614642565b613e10565b6020880197506134748861346f8361465c565b613e10565b60208801975061348c8861348783614676565b613e10565b6020880197506134a48861349f83614690565b613e10565b6020880197506134bc886134b7836146aa565b613e10565b6020880197506134d4886134cf836146c4565b613e10565b6020880197506134ec886134e7836146de565b613e10565b602088019750613504886134ff836146f8565b613e10565b60208801975061351c8861351783614712565b613e10565b6020880197506135348861352f83614746565b613e10565b60208801975061354c8861354783614760565b613e10565b60208801975060018301925050602081019050613242565b5b600115613a50578154848210156135955761358888613583836144f0565b613e10565b6020880197506001820191505b848210156135bc576135af886135aa8361460e565b613e10565b6020880197506001820191505b848210156135e3576135d6886135d18361472c565b613e10565b6020880197506001820191505b8482101561360a576135fd886135f88361477a565b613e10565b6020880197506001820191505b84821015613631576136248861361f83614794565b613e10565b6020880197506001820191505b848210156136585761364b88613646836147ae565b613e10565b6020880197506001820191505b8482101561367f576136728861366d836147c8565b613e10565b6020880197506001820191505b848210156136a65761369988613694836147e2565b613e10565b6020880197506001820191505b848210156136cd576136c0886136bb836147fc565b613e10565b6020880197506001820191505b848210156136f4576136e7886136e283614816565b613e10565b6020880197506001820191505b8482101561371b5761370e886137098361450a565b613e10565b6020880197506001820191505b84821015613742576137358861373083614524565b613e10565b6020880197506001820191505b848210156137695761375c886137578361453e565b613e10565b6020880197506001820191505b84821015613790576137838861377e83614558565b613e10565b6020880197506001820191505b848210156137b7576137aa886137a583614572565b613e10565b6020880197506001820191505b848210156137de576137d1886137cc8361458c565b613e10565b6020880197506001820191505b84821015613805576137f8886137f3836145a6565b613e10565b6020880197506001820191505b8482101561382c5761381f8861381a836145c0565b613e10565b6020880197506001820191505b848210156138535761384688613841836145da565b613e10565b6020880197506001820191505b8482101561387a5761386d88613868836145f4565b613e10565b6020880197506001820191505b848210156138a1576138948861388f83614628565b613e10565b6020880197506001820191505b848210156138c8576138bb886138b683614642565b613e10565b6020880197506001820191505b848210156138ef576138e2886138dd8361465c565b613e10565b6020880197506001820191505b84821015613916576139098861390483614676565b613e10565b6020880197506001820191505b8482101561393d576139308861392b83614690565b613e10565b6020880197506001820191505b848210156139645761395788613952836146aa565b613e10565b6020880197506001820191505b8482101561398b5761397e88613979836146c4565b613e10565b6020880197506001820191505b848210156139b2576139a5886139a0836146de565b613e10565b6020880197506001820191505b848210156139d9576139cc886139c7836146f8565b613e10565b6020880197506001820191505b84821015613a00576139f3886139ee83614712565b613e10565b6020880197506001820191505b84821015613a2757613a1a88613a1583614746565b613e10565b6020880197506001820191505b84821015613a4e57613a4188613a3c83614760565b613e10565b6020880197506001820191505b505b8694505050505092915050565b613a6681614416565b82525050565b613a7581614416565b82525050565b613a8481614422565b82525050565b613a9b613a9682614422565b614879565b82525050565b6000613aac826141ea565b613ab68185614260565b9350613ac68185602086016144bd565b613acf81614965565b840191505092915050565b613ae38161442c565b82525050565b613af28161442c565b82525050565b613b0181614443565b82525050565b613b1081614443565b82525050565b6000613b23601483614271565b9150613b2e82614b16565b602082019050919050565b6000613b46602683614271565b9150613b5182614b3f565b604082019050919050565b6000613b69601083614271565b9150613b7482614b8e565b602082019050919050565b6000613b8c600e83614271565b9150613b9782614bb7565b602082019050919050565b6000613baf602083614271565b9150613bba82614be0565b602082019050919050565b6000613bd2601f83614271565b9150613bdd82614c09565b602082019050919050565b6000613bf5602183614271565b9150613c0082614c32565b604082019050919050565b6000613c18601a83614271565b9150613c2382614c81565b602082019050919050565b6000613c3b601883614271565b9150613c4682614caa565b602082019050919050565b600061012083016000830151613c6a60008601826130c8565b506020830151613c7d6020860182613ddb565b506040830151613c906040860182613ddb565b506060830151613ca36060860182613e10565b506080830151613cb66080860182613e10565b5060a0830151613cc960a0860182613af8565b5060c0830151613cdc60c0860182613ada565b5060e0830151613cef60e0860182613a5d565b50610100830151848203610100860152613d0982826131b9565b9150508091505092915050565b600061012083016000830151613d2f60008601826130c8565b506020830151613d426020860182613ddb565b506040830151613d556040860182613ddb565b506060830151613d686060860182613e10565b506080830151613d7b6080860182613e10565b5060a0830151613d8e60a0860182613af8565b5060c0830151613da160c0860182613ada565b5060e0830151613db460e0860182613a5d565b50610100830151848203610100860152613dce82826131b9565b9150508091505092915050565b613de481614470565b82525050565b613df381614470565b82525050565b613e0a613e0582614470565b614883565b82525050565b613e198161447a565b82525050565b6000613e2b8285613a8a565b602082019150613e3b8284613df9565b6020820191508190509392505050565b6000602082019050613e6060008301846130d7565b92915050565b6000604082019050613e7b60008301856130b9565b613e886020830184613dea565b9392505050565b6000604082019050613ea460008301856130d7565b613eb16020830184613dea565b9392505050565b6000606082019050613ecd60008301866130d7565b613eda6020830185613dea565b8181036040830152613eec8184613aa1565b9050949350505050565b60006020820190508181036000830152613f1081846130e6565b905092915050565b60006020820190508181036000830152613f328184613144565b905092915050565b60006060820190508181036000830152613f548186613217565b9050613f636020830185613b07565b613f706040830184613ae9565b949350505050565b6000602082019050613f8d6000830184613a6c565b92915050565b6000602082019050613fa86000830184613a7b565b92915050565b6000604082019050613fc36000830185613a7b565b613fd06020830184613dea565b9392505050565b6000608082019050613fec6000830187613a7b565b613ff96020830186613dea565b61400660408301856130d7565b6140136060830184613dea565b95945050505050565b6000602082019050818103600083015261403581613b16565b9050919050565b6000602082019050818103600083015261405581613b39565b9050919050565b6000602082019050818103600083015261407581613b5c565b9050919050565b6000602082019050818103600083015261409581613b7f565b9050919050565b600060208201905081810360008301526140b581613ba2565b9050919050565b600060208201905081810360008301526140d581613bc5565b9050919050565b600060208201905081810360008301526140f581613be8565b9050919050565b6000602082019050818103600083015261411581613c0b565b9050919050565b6000602082019050818103600083015261413581613c2e565b9050919050565b600060208201905081810360008301526141568184613d16565b905092915050565b60006020820190506141736000830184613dea565b92915050565b6000819050602082019050919050565b6000819050602082019050919050565b6000819050602082019050919050565b60008190508160005260206000209050919050565b600081519050919050565b600081519050919050565b600081519050919050565b600081549050919050565b600081519050919050565b6000602082019050919050565b6000602082019050919050565b6000602082019050919050565b600082825260208201905092915050565b600082825260208201905092915050565b600082825260208201905092915050565b600082825260208201905092915050565b600082825260208201905092915050565b600082825260208201905092915050565b600061428d82614439565b915061429883614439565b9250817f7fffffffffffffffffffffffffffffffffffffffffffffffffffffffffffffff038313600083121516156142d3576142d2614907565b5b817f800000000000000000000000000000000000000000000000000000000000000003831260008312161561430b5761430a614907565b5b828201905092915050565b600061432182614470565b915061432c83614470565b9250827fffffffffffffffffffffffffffffffffffffffffffffffffffffffffffffffff0382111561436157614360614907565b5b828201905092915050565b600061437782614470565b915061438283614470565b92508261439257614391614936565b5b828204905092915050565b60006143a882614470565b91506143b383614470565b9250817fffffffffffffffffffffffffffffffffffffffffffffffffffffffffffffffff04831182151516156143ec576143eb614907565b5b828202905092915050565b600060ff82169050919050565b600061440f82614450565b9050919050565b60008115159050919050565b6000819050919050565b60008160010b9050919050565b6000819050919050565b60008160000b9050919050565b600073ffffffffffffffffffffffffffffffffffffffff82169050919050565b6000819050919050565b600060ff82169050919050565b600061449282614499565b9050919050565b60006144a4826144ab565b9050919050565b60006144b682614450565b9050919050565b60005b838110156144db5780820151818401526020810190506144c0565b838111156144ea576000848401525b50505050565b60006145036144fe83614976565b6143f7565b9050919050565b600061451d61451883614ae2565b6143f7565b9050919050565b600061453761453283614aef565b6143f7565b9050919050565b600061455161454c83614b09565b6143f7565b9050919050565b600061456b61456683614983565b6143f7565b9050919050565b600061458561458083614990565b6143f7565b9050919050565b600061459f61459a8361499d565b6143f7565b9050919050565b60006145b96145b4836149aa565b6143f7565b9050919050565b60006145d36145ce836149b7565b6143f7565b9050919050565b60006145ed6145e8836149c4565b6143f7565b9050919050565b6000614607614602836149d1565b6143f7565b9050919050565b600061462161461c83614afc565b6143f7565b9050919050565b600061463b614636836149de565b6143f7565b9050919050565b6000614655614650836149eb565b6143f7565b9050919050565b600061466f61466a83614a05565b6143f7565b9050919050565b600061468961468483614a12565b6143f7565b9050919050565b60006146a361469e83614a1f565b6143f7565b9050919050565b60006146bd6146b883614a2c565b6143f7565b9050919050565b60006146d76146d283614a39565b6143f7565b9050919050565b60006146f16146ec83614a46565b6143f7565b9050919050565b600061470b61470683614a53565b6143f7565b9050919050565b600061472561472083614a60565b6143f7565b9050919050565b600061473f61473a836149f8565b6143f7565b9050919050565b600061475961475483614a6d565b6143f7565b9050919050565b600061477361476e83614a7a565b6143f7565b9050919050565b600061478d61478883614a87565b6143f7565b9050919050565b60006147a76147a283614a94565b6143f7565b9050919050565b60006147c16147bc83614aa1565b6143f7565b9050919050565b60006147db6147d683614aae565b6143f7565b9050919050565b60006147f56147f083614abb565b6143f7565b9050919050565b600061480f61480a83614ac8565b6143f7565b9050919050565b600061482961482483614ad5565b6143f7565b9050919050565b600061483b82614470565b91507fffffffffffffffffffffffffffffffffffffffffffffffffffffffffffffffff82141561486e5761486d614907565b5b600182019050919050565b6000819050919050565b6000819050919050565b600061489882614470565b91506148a383614470565b9250826148b3576148b2614936565b5b828206905092915050565b60006148c982614443565b91507fffffffffffffffffffffffffffffffffffffffffffffffffffffffffffffff808214156148fc576148fb614907565b5b816000039050919050565b7f4e487b7100000000000000000000000000000000000000000000000000000000600052601160045260246000fd5b7f4e487b7100000000000000000000000000000000000000000000000000000000600052601260045260246000fd5b6000601f19601f8301169050919050565b60008160001c9050919050565b60008160681c9050919050565b60008160701c9050919050565b60008160781c9050919050565b60008160801c9050919050565b60008160881c9050919050565b60008160901c9050919050565b60008160981c9050919050565b60008160a01c9050919050565b60008160a81c9050919050565b60008160101c9050919050565b60008160b01c9050919050565b60008160b81c9050919050565b60008160c01c9050919050565b60008160c81c9050919050565b60008160d01c9050919050565b60008160d81c9050919050565b60008160e01c9050919050565b60008160e81c9050919050565b60008160f01c9050919050565b60008160f81c9050919050565b60008160181c9050919050565b60008160201c9050919050565b60008160281c9050919050565b60008160301c9050919050565b60008160381c9050919050565b60008160401c9050919050565b60008160481c9050919050565b60008160501c9050919050565b60008160581c9050919050565b60008160081c9050919050565b60008160601c9050919050565b7f5061757361626c653a206e6f7420706175736564000000000000000000000000600082015250565b7f4f776e61626c653a206e6577206f776e657220697320746865207a65726f206160008201527f6464726573730000000000000000000000000000000000000000000000000000602082015250565b7f5061757361626c653a2070617573656400000000000000000000000000000000600082015250565b7f546f6f206d616e79206469636521000000000000000000000000000000000000600082015250565b7f4f776e61626c653a2063616c6c6572206973206e6f7420746865206f776e6572600082015250565b7f4f6e6c7920565246436f6f7264696e61746f722063616e2066756c66696c6c00600082015250565b7f3130302073696465642064696520697320746865206d617820616c6c6f77656460008201527f2e00000000000000000000000000000000000000000000000000000000000000602082015250565b7f4e6f7420656e6f756768204c494e4b20746f2070617920666565000000000000600082015250565b7f41646a7573746d656e7420697320746f6f206c617267652e0000000000000000600082015250565b614cdc81614404565b8114614ce757600080fd5b50565b614cf381614416565b8114614cfe57600080fd5b50565b614d0a81614422565b8114614d1557600080fd5b50565b614d2181614443565b8114614d2c57600080fd5b50565b614d3881614470565b8114614d4357600080fd5b50565b614d4f8161447a565b8114614d5a57600080fd5b5056fea264697066735822122025688f47cdf1cdefbf2a41778e168a3c7f396690995bcf64194da93f33e88a3464736f6c63430008040033",
  "immutableReferences": {
    "73": [
      {
        "length": 32,
        "start": 2771
      },
      {
        "length": 32,
        "start": 4238
      },
      {
        "length": 32,
        "start": 5070
      },
      {
        "length": 32,
        "start": 6078
      },
      {
        "length": 32,
        "start": 10469
      }
    ],
    "75": [
      {
        "length": 32,
        "start": 5796
      },
      {
        "length": 32,
        "start": 10529
      }
    ]
  },
  "source": "// SPDX-License-Identifier: MIT\npragma solidity ^0.8.0;\n\nimport \"../DiceRoller.sol\";\n\ncontract MockedDiceRoller is DiceRoller {\n\n    constructor(address _vrfCoordinator, address _link, bytes32 _keyHash, uint256 _fee)\n      DiceRoller(_vrfCoordinator, _link, _keyHash, _fee)\n    {\n    }\n}",
  "sourcePath": "/home/mk/projects/web_3.0/dicey_attempts/MetaCoin/contracts/mocks/MockedDiceRoller.sol",
  "compiler": {
    "name": "solc",
    "version": "0.8.4+commit.c7e474f2.Emscripten.clang"
  },
  "schemaVersion": "3.4.4",
  "updatedAt": "2022-01-02T19:30:58.893Z",
  "devdoc": {
    "kind": "dev",
    "methods": {
      "hasRolled(uint8,uint8,int8,int8)": {
        "params": {
          "_adjustment": "the modifier to add after all die have been rolled. Can be negative.",
          "_dieSize": "the type of die rolled (4 = 4 sided, 6 = six sided, etc.)",
          "_numberOfDie": "how many dice are rolled",
          "_result": "can be negative if you have a low enough dice roll and larger negative adjustment. Example, rolled 2 4 sided die with -4 adjustment."
        }
      },
      "owner()": {
        "details": "Returns the address of the current owner."
      },
      "pause()": {
        "details": "Triggers stopped state. Requirements: - The contract must not be paused."
      },
      "paused()": {
        "details": "Returns true if the contract is paused, and false otherwise."
      },
      "renounceOwnership()": {
        "details": "Leaves the contract without owner. It will not be possible to call `onlyOwner` functions anymore. Can only be called by the current owner. NOTE: Renouncing ownership will leave the contract without an owner, thereby removing any functionality that is only available to the owner."
      },
      "rollDice(uint8,uint8,int8)": {
        "params": {
          "_adjustment": "the modifier to add after all die have been rolled. Can be negative.",
          "_dieSize": "the type of die rolled (4 = 4 sided, 6 = six sided, etc.)",
          "_numberOfDie": "how many dice are rolled"
        }
      },
      "rollDiceFast(uint8,uint8,int8)": {
        "params": {
          "_adjustment": "the modifier to add after all die have been rolled. Can be negative.",
          "_dieSize": "the type of die rolled (4 = 4 sided, 6 = six sided, etc.)",
          "_numberOfDie": "how many dice are rolled"
        }
      },
      "transferOwnership(address)": {
        "details": "Transfers ownership of the contract to a new account (`newOwner`). Can only be called by the current owner."
      },
      "unpause()": {
        "details": "Returns to normal state. Requirements: - The contract must be paused."
      }
    },
    "version": 1
  },
  "userdoc": {
    "events": {
      "DiceLanded(bytes32,address,uint8[],int8,int16)": {
        "notice": "Emitted when fulfillRandomness is called by Chainlink VRF to provide the random value."
      },
      "DiceRolled(bytes32,address)": {
        "notice": "Emit this when either of the rollDice functions are called. Used to notify soem front end that we are waiting for response from chainlink VRF."
      }
    },
    "kind": "user",
    "methods": {
      "getAllUsers()": {
        "notice": "only allow the contract owner (me) to access this."
      },
      "getUserRolls(address)": {
        "notice": "returns historic data for specific address/user"
      },
      "getUserRollsCount(address)": {
        "notice": "How many times someone rolled."
      },
      "hasRolled(uint8,uint8,int8,int8)": {
        "notice": "Called by the front end if user wants to use the front end to  generate the random values. We just use this to store the result of the roll on the blockchain."
      },
      "hasRolledOnce(address)": {
        "notice": "Used to perform specific logic based on if user has rolled previoulsy or not."
      },
      "kill()": {
        "notice": "When the contract is killed, make sure to return all unspent tokens back to my wallet."
      },
      "rollDice(uint8,uint8,int8)": {
        "notice": "Requests randomness from Chainlink."
      },
      "rollDiceFast(uint8,uint8,int8)": {
        "notice": "Uses psuedo randomness based on blockchain data. This function is used to  compare speed of getting some sort of randomness straight from the blockchain  instead of waiting for Chainlink VRF to return a random value."
      }
    },
    "version": 1
  }
}