{
  "contractName": "TweetStorage",
  "abi": [
    {
      "anonymous": false,
      "inputs": [
        {
          "indexed": true,
          "internalType": "uint256",
          "name": "userId",
          "type": "uint256"
        },
        {
          "indexed": true,
          "internalType": "uint256",
          "name": "tweetId",
          "type": "uint256"
        }
      ],
      "name": "TweetCreated",
      "type": "event"
    },
    {
      "inputs": [
        {
          "internalType": "uint256",
          "name": "",
          "type": "uint256"
        }
      ],
      "name": "tweets",
      "outputs": [
        {
          "internalType": "uint256",
          "name": "id",
          "type": "uint256"
        },
        {
          "internalType": "string",
          "name": "text",
          "type": "string"
        },
        {
          "internalType": "uint256",
          "name": "userId",
          "type": "uint256"
        },
        {
          "internalType": "uint256",
          "name": "postedAt",
          "type": "uint256"
        }
      ],
      "stateMutability": "view",
      "type": "function"
    },
    {
      "inputs": [
        {
          "internalType": "uint256",
          "name": "_userId",
          "type": "uint256"
        },
        {
          "internalType": "string",
          "name": "_text",
          "type": "string"
        }
      ],
      "name": "createTweet",
      "outputs": [
        {
          "internalType": "uint256",
          "name": "",
          "type": "uint256"
        }
      ],
      "stateMutability": "nonpayable",
      "type": "function"
    }
  ],
  "bytecode": "0x60806040526000805534801561001457600080fd5b506106c0806100246000396000f3fe608060405234801561001057600080fd5b50600436106100365760003560e01c80637cc82f201461003b578063e8d857b01461006b575b600080fd5b61005560048036038101906100509190610368565b61009e565b6040516100629190610404565b60405180910390f35b6100856004803603810190610080919061033f565b610167565b604051610095949392919061041f565b60405180910390f35b60008060008154809291906100b29061058c565b91905055506040518060800160405280600054815260200183815260200184815260200142815250600160008054815260200190815260200160002060008201518160000155602082015181600101908051906020019061011492919061021f565b506040820151816002015560608201518160030155905050600054837f91fc21828f4bf12f0f7069162d420799f9b3def60731818cc55c771f97d9cb3260405160405180910390a3600054905092915050565b600160205280600052604060002060009150905080600001549080600101805461019090610529565b80601f01602080910402602001604051908101604052809291908181526020018280546101bc90610529565b80156102095780601f106101de57610100808354040283529160200191610209565b820191906000526020600020905b8154815290600101906020018083116101ec57829003601f168201915b5050505050908060020154908060030154905084565b82805461022b90610529565b90600052602060002090601f01602090048101928261024d5760008555610294565b82601f1061026657805160ff1916838001178555610294565b82800160010185558215610294579182015b82811115610293578251825591602001919060010190610278565b5b5090506102a191906102a5565b5090565b5b808211156102be5760008160009055506001016102a6565b5090565b60006102d56102d084610490565b61046b565b9050828152602081018484840111156102ed57600080fd5b6102f88482856104e7565b509392505050565b600082601f83011261031157600080fd5b81356103218482602086016102c2565b91505092915050565b60008135905061033981610673565b92915050565b60006020828403121561035157600080fd5b600061035f8482850161032a565b91505092915050565b6000806040838503121561037b57600080fd5b60006103898582860161032a565b925050602083013567ffffffffffffffff8111156103a657600080fd5b6103b285828601610300565b9150509250929050565b60006103c7826104c1565b6103d181856104cc565b93506103e18185602086016104f6565b6103ea81610662565b840191505092915050565b6103fe816104dd565b82525050565b600060208201905061041960008301846103f5565b92915050565b600060808201905061043460008301876103f5565b818103602083015261044681866103bc565b905061045560408301856103f5565b61046260608301846103f5565b95945050505050565b6000610475610486565b9050610481828261055b565b919050565b6000604051905090565b600067ffffffffffffffff8211156104ab576104aa610633565b5b6104b482610662565b9050602081019050919050565b600081519050919050565b600082825260208201905092915050565b6000819050919050565b82818337600083830152505050565b60005b838110156105145780820151818401526020810190506104f9565b83811115610523576000848401525b50505050565b6000600282049050600182168061054157607f821691505b6020821081141561055557610554610604565b5b50919050565b61056482610662565b810181811067ffffffffffffffff8211171561058357610582610633565b5b80604052505050565b6000610597826104dd565b91507fffffffffffffffffffffffffffffffffffffffffffffffffffffffffffffffff8214156105ca576105c96105d5565b5b600182019050919050565b7f4e487b7100000000000000000000000000000000000000000000000000000000600052601160045260246000fd5b7f4e487b7100000000000000000000000000000000000000000000000000000000600052602260045260246000fd5b7f4e487b7100000000000000000000000000000000000000000000000000000000600052604160045260246000fd5b6000601f19601f8301169050919050565b61067c816104dd565b811461068757600080fd5b5056fea26469706673582212200e25deccaab618cc2d55eb700595776f71c38ca7bd2332045d256e7572aa566a64736f6c63430008040033",
  "immutableReferences": {},
  "source": "// SPDX-License-Identifier: UNLICENSED\n\npragma solidity ^0.8.4;\n//import 'hardhat/console.sol';\n\ncontract TweetStorage{\n    uint latestTweetId = 0;\n\n    struct Tweet{\n        uint id;\n        string text;\n        uint userId;\n        uint postedAt;\n    }\n\n    mapping(uint=>Tweet) public tweets;\n\n    event TweetCreated(uint indexed userId, uint indexed tweetId);\n\n    function createTweet(uint _userId, string memory _text) public returns(uint){\n        latestTweetId++;\n\n        tweets[latestTweetId] = Tweet({id: latestTweetId, text: _text, userId: _userId, postedAt:block.timestamp});\n        // console.log('This is from Contract',latestTweetId); // This value is getting logged as 1\n        emit TweetCreated(_userId, latestTweetId);\n        return(latestTweetId); \n    }\n}",
  "sourcePath": "/home/mk/projects/web_3.0/dicey_attempts/MetaCoin/contracts/TweetStorage.sol",
  "compiler": {
    "name": "solc",
    "version": "0.8.4+commit.c7e474f2.Emscripten.clang"
  },
  "schemaVersion": "3.4.4",
  "updatedAt": "2022-01-02T19:30:58.891Z",
  "devdoc": {
    "kind": "dev",
    "methods": {},
    "version": 1
  },
  "userdoc": {
    "kind": "user",
    "methods": {},
    "version": 1
  }
}